:100000000C945D000C9485000C9485000C94850084
:100010000C9485000C9485000C9485000C9485004C
:100020000C9485000C9485000C9485000C9485003C
:100030000C9485000C9485000C9485000C9485002C
:100040000C941A020C9485000C948A020C9464029D
:100050000C9485000C9485000C9485000C9485000C
:100060000C9485000C94850000000008000201003B
:100070000003040700000000000000000000000072
:10008000250028002B0000000000240027002A0083
:10009000040404040404040402020202020203032E
:1000A0000303030301020408102040800102040836
:1000B0001020010204081020FE0311241FBECFEF00
:1000C000D8E0DEBFCDBF12E0A0E0B1E0E6E6F8E0A8
:1000D00002C005900D92A237B107D9F723E0A2E73D
:1000E000B2E001C01D92AA31B207E1F710E0CDE500
:1000F000D0E004C02197FE010E942B04CC35D1072B
:10010000C9F70E94BC020C9431040C94000090E0EA
:10011000FC01EC55FF4F249180579F4FFC018491C7
:10012000882399F090E0880F991FFC01EA57FF4F50
:10013000A591B491FC01E458FF4F859194918FB73C
:10014000F894EC91E22BEC938FBF0895AF92BF929D
:10015000CF92DF92EF92FF920F931F93CF93DF9393
:100160006C017B018B01040F151FEB015E01AE18C2
:10017000BF08C017D10759F06991D601ED91FC91E4
:100180000190F081E02DC6010995892B79F7C50111
:10019000DF91CF911F910F91FF90EF90DF90CF9063
:1001A000BF90AF900895FC01538D448D252F30E012
:1001B000842F90E0821B930B541710F0CF96089574
:1001C00001970895FC01918D828D981761F0A28DA1
:1001D000AE0FBF2FB11D5D968C91928D9F5F9F7367
:1001E000928F90E008958FEF9FEF0895FC01918D1D
:1001F000828D981731F0828DE80FF11D858D90E08A
:1002000008958FEF9FEF0895FC01918D228D892F26
:1002100090E0805C9F4F821B91098F73992708950E
:100220008DE792E00E94040121E0892B09F420E08F
:10023000822F089580E090E0892B29F00E94100120
:1002400081110C9400000895FC01A48DA80FB92F12
:10025000B11DA35ABF4F2C91848D90E001968F73EE
:100260009927848FA689B7892C93A089B1898C910D
:10027000837080648C93938D848D981306C002885C
:10028000F389E02D80818F7D80830895EF92FF9226
:100290000F931F93CF93DF93EC0181E0888F9B8DA9
:1002A0008C8D98131AC0E889F989808185FF15C063
:1002B0009FB7F894EE89FF896083E889F989808186
:1002C0008370806480839FBF81E090E0DF91CF9155
:1002D0001F910F91FF90EF900895F62E0B8D10E077
:1002E0000F5F1F4F0F731127E02E8C8D8E110CC0E6
:1002F0000FB607FCFACFE889F989808185FFF5CF31
:10030000CE010E942401F1CFEB8DEC0FFD2FF11DEA
:10031000E35AFF4FF0829FB7F8940B8FEA89FB896D
:1003200080818062CFCFCF93DF93EC01888D8823CB
:10033000B9F0AA89BB89E889F9898C9185FD03C048
:10034000808186FD0DC00FB607FCF7CF8C9185FF2D
:10035000F2CF808185FFEDCFCE010E942401E9CF4D
:10036000DF91CF91089590E0FC01E859FF4F24916F
:10037000FC01EC55FF4F3491FC01E057FF4FE49135
:10038000EE23C9F0222339F0233001F1A8F4213003
:1003900019F1223029F1F0E0EE0FFF1FE458FF4F72
:1003A000A591B4918FB7F894EC91611126C0309566
:1003B0003E233C938FBF08952730A9F02830C9F021
:1003C000243049F7809180008F7D03C080918000A8
:1003D0008F7780938000DFCF84B58F7784BDDBCFAC
:1003E00084B58F7DFBCF8091B0008F778093B00074
:1003F000D2CF8091B0008F7DF9CF3E2BDACFFC01B8
:1004000001900020E9F73197AF01481B590BBC015F
:100410008DE792E00C94A600CF93DF930E94FF013A
:10042000EC0182E191E00E94FF018C0F9D1FDF91A2
:10043000CF9108951F920F920FB60F9211242F9310
:100440003F938F939F93AF93BF9380917902909145
:100450007A02A0917B02B0917C023091780223E075
:10046000230F2D3758F50196A11DB11D2093780259
:100470008093790290937A02A0937B02B0937C02DE
:100480008091740290917502A0917602B0917702EA
:100490000196A11DB11D8093740290937502A093E3
:1004A0007602B0937702BF91AF919F918F913F9168
:1004B0002F910F900FBE0F901F90189526E8230FD5
:1004C0000296A11DB11DD2CF1F920F920FB60F92AF
:1004D00011242F933F934F935F936F937F938F9349
:1004E0009F93AF93BF93EF93FF938DE792E00E94AA
:1004F0002401FF91EF91BF91AF919F918F917F91D7
:100500006F915F914F913F912F910F900FBE0F9080
:100510001F9018951F920F920FB60F9211242F93D0
:100520008F939F93EF93FF93E0918D02F0918E0252
:100530008081E0919302F091940282FD1BC0908132
:10054000809196028F5F8F7320919702821741F0FE
:10055000E0919602F0E0E358FD4F958F809396026C
:10056000FF91EF919F918F912F910F900FBE0F9060
:100570001F9018958081F4CF789484B5826084BDF3
:1005800084B5816084BD85B5826085BD85B5816097
:1005900085BD80916E00816080936E001092810015
:1005A00080918100826080938100809181008160D0
:1005B0008093810080918000816080938000809191
:1005C000B10084608093B1008091B000816080931D
:1005D000B00080917A00846080937A0080917A00E4
:1005E000826080937A0080917A00816080937A00A3
:1005F00080917A00806880937A001092C100E09127
:100600008D02F0918E0282E08083E0918902F09168
:100610008A021082E0918B02F0918C028FEC808331
:1006200010929502E0919102F091920286E080830F
:10063000E0918F02F0919002808180618083E0914F
:100640008F02F0919002808188608083E0918F0218
:10065000F0919002808180688083E0918F02F09118
:10066000900280818F7D808387E00E94870086E0F2
:100670000E94870085E00E94870084E00E94870036
:1006800061E087E00E94B30161E086E00E94B3016F
:1006900061E085E00E94B30161E084E00E94B30163
:1006A00085E191E00E94FF0182E191E00E94FF015B
:1006B00080E491E00E94FF0182E191E00E94FF014D
:1006C00080E0E82E80E0F82E01E010E08DE792E077
:1006D0000E940401892B91F18DE792E00E94E200D3
:1006E000C82F682F8DE792E00E94460189E591E0CE
:1006F0000E94FF01C13361F51093730200937202EF
:1007000060E086E00E94B30161E087E00E94B301EF
:1007100080E791E00E940C02809172029091730236
:10072000892B21F48EE492E00E940C0282E191E098
:100730000E94FF011092730210927202E114F10400
:1007400029F20E941001882309F20E940000BECF06
:10075000C23379F4109373020093720260E087E071
:100760000E94B30161E086E00E94B30189E991E053
:10077000D1CFC33379F4109373020093720260E017
:1007800087E00E94B30160E086E00E94B3018BEC39
:1007900091E0C0CFC43379F41093730200937202D6
:1007A00060E085E00E94B30161E084E00E94B30153
:1007B00082EE91E0AFCFC53379F4109373020093CA
:1007C000720260E084E00E94B30161E085E00E9473
:1007D000B30189E092E09ECFC63309F09DCF10931C
:1007E00073020093720260E085E00E94B30160E052
:1007F00084E00E94B30189E392E08CCFEDE7F2E060
:100800001382128288EE93E0A0E0B0E084839583A7
:10081000A683B78384E091E09183808385EC90E0A8
:100820009587848784EC90E09787868780EC90E0BA
:10083000918B808B81EC90E0938B828B82EC90E0AB
:10084000958B848B86EC90E0978B868B118E128E25
:10085000138E148E0895EE0FFF1F0590F491E02D76
:060860000994F894FFCF9B
:10086600000000004601A600D30093010401E20047
:10087600F6000D0A0053696D756C61736920506549
:100886006E67656E64616C69204D6F746F7220448B
:10089600432064656E67616E20584265653A2000A4
:1008A60054656B6E696B2054656C656B6F6D756E08
:1008B600696B617369203342002020202020203D8F
:1008C6003D3D3D3D3D3D3D203E2020202020200059
:1008D6004D6F746F722050657274616D6120626530
:1008E60072707574617220736561726168206A61E5
:1008F60072756D206A616D2E004D6F746F72205097
:10090600657274616D6120626572707574617220C2
:100916006265726C6177616E616E206172616820DA
:100926006A6172756D206A616D2E004D6F746F720B
:100936002050657274616D612042455248454E549F
:1009460049004D6F746F72204B6564756120626556
:1009560072707574617220736561726168206A6174
:1009660072756D206A616D2E004D6F746F72204B2B
:100976006564756120626572707574617220626566
:10098600726C6177616E616E2061726168206A6166
:1009960072756D206A616D2E004D6F746F72204BFB
:1009A600656475612042455248454E54490050657C
:1009B60072696E7461682053616C61682E20536998
:1009C6006C616B616E20756C616E676920212121F7
:0209D6002000FF
:00000001FF
